:100000000C945A000C946C000C946C000C946C00D2
:100010000C946C000C946C000C946C000C946C00B0
:100020000C946C000C946C000C946C000C946C00A0
:100030000C946C000C946C000C946E000C946C008E
:100040000C946C000C946C000C946C000C946C0080
:100050000C946C000C946C000C946C000C946C0070
:100060000C946C000C946C000C946C000C946C0060
:100070000C946C000C946C000C946C000C946C0050
:100080000C946C000C946C000C946C000C946C0040
:100090000C946C000C946C000C946C000C946C0030
:1000A0000C946C000C946C000C946C000C946C0020
:1000B0000C946C0011241FBECFEFD8E0DEBFCDBF83
:1000C00021E0A0E0B1E001C01D92A430B207E1F749
:1000D0000E9497000C943B010C9400001F920F9219
:1000E0000FB60F9211248F939F93AF93BF9380917C
:1000F000000190910101A0910201B09103010196CC
:10010000A11DB11D8093000190930101A0930201F4
:10011000B09303019BB180E489278BB9BF91AF9164
:100120009F918F910F900FBE0F901F90189584B1E3
:10013000816084B98AB18C638AB98AB18F7B8AB9AC
:100140008BB180648BB982E084BD83E085BD8DE78F
:1001500087BDEEE6F0E08081826080837894C12CD8
:10016000D12C76014E9913C010920001109201011A
:1001700010920201109203018BB1877C8BB98BB175
:1001800084608BB94E9BFECFC12CD12C760180911F
:10019000000190910101A0910201B0910301BC0105
:1001A000CD016C197D098E099F09603727E172071F
:1001B0008105910550F48BB180618BB98BB1837F40
:1001C0008BB98BB180628BB9CDCF683223E27207D5
:1001D00081059105C8F42BB128602BB92BB12B7E7A
:1001E0002BB928EE33E040E050E00E941901643F53
:1001F00071408105910520F48BB180628BB9B2CF3B
:100200008BB18F7D8BB9AECF683672448105910575
:1002100038F48BB184608BB98BB1877C8BB9A2CF5A
:10022000C0900001D0900101E0900201F090030124
:1002300099CFA1E21A2EAA1BBB1BFD010DC0AA1F5C
:10024000BB1FEE1FFF1FA217B307E407F50720F03F
:10025000A21BB30BE40BF50B661F771F881F991FBA
:100260001A9469F760957095809590959B01AC0103
:0A027000BD01CF010895F894FFCFFF
:00000001FF
