S00D000074696D65722E73726563F6
S11300000C945A000C9464000C9464000C946400E6
S11300100C9464000C9464000C9464000C946400CC
S11300200C9464000C9464000C9464000C946400BC
S11300300C9464000C9464000C9470000C946400A0
S11300400C9464000C9464000C9464000C9464009C
S11300500C9464000C9464000C9464000C9464008C
S11300600C9464000C9464000C9464000C9464007C
S11300700C9464000C9464000C9464000C9464006C
S11300800C9464000C9464000C9464000C9464005C
S11300900C9464000C9464000C9464000C9464004C
S11300A00C9464000C9464000C9464000C9464003C
S11300B00C94640011241FBECFEFD8E0DEBFCDBF87
S11300C00E9482000C9488000C94000083E085BD9B
S11300D082E084BD9DE797BD80936E007894089577
S11300E01F920F920FB60F9211248F939F939BB17F
S11300F080E489278BB99F918F910F900FBE0F9049
S11301001F9018958AB180648AB90E946600FFCF57
S1070110F894FFCF8D
S9030000FC
